S0200000464D3135305F53656E736F72536869656C645F5241364D332E7372656301
S11300002004FE1F111D0000E91B0000211D00003B
S1130010211D0000211D0000211D0000211D0000E4
S1130020000000000000000000000000211D00008E
S1130030211D000000000000211D0000AD1E000075
S11300405D15000085160000ED0E0000810F000014
S10B00506510000061110000BD
S11300580300000068000000070000008C00000096
S113006800000090000000900001000D4004FE1FF5
S11300789406FE1F000000039406FE1F9406FE1F4C
S113008800000003000000900000009000000060E1
S113009800010C0D000000900000009000001040CA
S11300A80001020D000000900000009040040000D0
S11300B80001010D0000FE1F0000FE1F000000608B
S11300C800010C030000FE1F0000FE1F000010408A
S11300D8000002030000FE1F1A00FE1F4004000077
S11300E8000001039406FE1F9406FE1F5A04000034
S10700F800000103FC
S1070400FFFFFFFFF8
S1070404FFFDFFFFF6
S113044028000A00AA0000F00000000000002000BC
S10D045001000A0019006400E8032B
S113045C024690F82600136A52F820C0A3EB0C0352
S113046C136242F8201092F82600136A52F82010F6
S113047C82F827001944116289B2C9089184411C7D
S113048CC8B207284FF0000088BF002182F826105C
S113049C7047D4D4024690F82600136A52F820C050
S11304ACA3EB0C03136242F8201092F82600136A93
S11304BC52F8201082F8270019440BB2C3F30273CC
S11304CC1162194409B2C9089184411CC8B20728A5
S11304DC4FF0000088BF002182F826107047D4D456
S11304EC024690F82800136A52F820C0A3EB0C03C0
S11304FC136242F8201092F82800136A52F8201064
S113050C82F829001944CB1701EB5373DB10C2E9B1
S113051C0813411CC8B207284FF0000088BF002103
S113052C82F828107047D4D480B56F4682B040F25C
S113053C7860C1F6FE70006844F6D351C1F26201D2
S113054CA0FB01014FF0FF3000EB91104FF0000ABB
S113055CBAEB106F0ED14EF21001CEF200014860CE
S113056C4EF62350CEF20000F02202700720C1F8A0
S113057C08A0086041F6D47CC0F2000C40F2544E42
S113058C6246C1F6FE7E78CA714678C192E879005B
S113059C40F2800B79C1AEF80AA040F27844C1F65F
S11305ACFE74BCE84E0020464EC09CE86E00C4F2BB
S11305BC040B6EC040F2E05042F20001C1F6FE7032
S11305CCC0F20001A4F80AA000F076FE40F2444107
S11305DCC1F6FE7140F27C6440F27D6840F27E66A6
S11305EC40F27F630860C1F6FE74C1F6FE78C1F672
S11305FCFE76C1F6FE730020019012E040F27F6398
S113060CC1F6FE7398F80000002818BF88F800A003
S113061C3078002818BF86F800A01878002840F01D
S113062C108220780028EDD040F2494284F800A0D2
S113063CC1F6FE721078411C03281170E2D8DFE871
S113064C10F096004D0104002E0140F29C43C1F6BB
S113065CFE7318785978DA7841EA002040F64E4156
S113066C484341F201011B79C1F20001A0FB0101D5
S113067C43EA02204FF47A72504340F20142C0F232
S113068C0042A0FB02024FF61660CFF6FF7000EB9F
S113069C113040F20001C1F6FE71088040F20201F3
S11306AC40F2B054900AC1F6FE71C1F6FE74088093
S11306BC204600F0C1FB40F24045C1F6FE7540F205
S11306CC544128602046C1F6FE7100F007FA2860F8
S11306DC0120012101F03CFABBF82000012120F497
S11306EC8070ABF82000012001F032FAD94640F2B8
S11306FC4A4B40F20E01C1F6FE7B204640F27C646C
S113070CC1F6FE715A4602230726C1F6FE74009602
S113071C00F054FB286040F27E6632200121C1F6C1
S113072CFE7601F015FAB9F8200040F2285240F494
S113073C8070A9F820009BF801009BF80010C1F60A
S113074CFE7210705170108840F2A411C0F34B006B
S113075CC0F2780140F6215210FB0210410C40F219
S113076C2C50C1F6FE70CB46FFF772FE46E740F202
S113077CE05041F6C671C1F6FE70C0F200010222CF
S113078C002300F099FE40F2444140F2B054C1F60B
S113079CFE71C1F6FE740860204600F04DFB46461F
S11307AC40F24048C1F6FE7840F27841C8F80000A7
S11307BC2046C1F6FE7100F091F9C8F80000012042
S11307CC012101F0C5F9BBF8000001216FF3DF3002
S11307DCABF80000012001F0BBF940F2040AC1F6A9
S11307ECFE7A204651460322072300F0ADFAC8F8DE
S11307FC00003220012101F0ABF9BBF8000001210B
S113080C40F40040ABF80000012001F0A1F9BBF862
S113081C0000012120F48040ABF80000012001F01D
S113082C97F9204651460322072300F08DFAC8F8A5
S113083C00003220012101F08BF9BBF800000121EA
S113084C40F48040ABF80000012001F081F9BBF8C2
S113085C4000012120F40060ABF84000012001F0BD
S113086C77F9204640F27C64514603220723C1F6F3
S113087CFE744FF0000A00F067FAC8F80000B046A6
S113088C40F27E6632200121C1F6FE7601F060F959
S113089CBBF8400040F40060ABF84000AEE640F218
S11308AC0000C1F6FE70B0F9001040F25450C1F6CD
S11308BCFE70FFF7EFFD40F20200C1F6FE70B0F9D6
S11308CC001040F27C50C1F6FE70FFF7E3FD40F2DD
S11308DC4940C1F6FE7080F800A08FE640F2E0506B
S11308EC40F29C41C1F6FE70C1F6FE710622002353
S11308FC00F094FD40F24441C1F6FE710860BBF86F
S113090C000001216FF3DF30ABF80000052001F08B
S113091C1FF940F2B05440F2070540F24A49C1F6BF
S113092CFE74C1F6FE75C1F6FE79204629464A4688
S113093C07230726009600F041FA40F24046C1F620
S113094CFE7630603220012101F002F9BBF8000080
S113095C40F40040ABF8000099F8021099F801003B
S113096C99F80320090241EA0040811840F2A4409E
S113097CC1F6FE70FFF7B4FDBBF80000012120F4B2
S113098C8040ABF80000052001F0E2F8204629462F
S113099C4A4607230725009500F010FA30603220F0
S11309AC012101F0D5F8BBF8000040F48040ABF80D
S11309BC000099F8021099F8010099F80320090233
S11309CC41EA0040811840F2D040C1F6FE70FFF7B6
S11309DC87FDBBF84000012120F40060ABF8400017
S11309EC052001F0B5F840F20701204640F27C6482
S11309FCC1F6FE714A460723C1F6FE74009500F059
S1130A0CDDF9306040F27E6632200121C1F6FE76BB
S1130A1C01F09EF8BBF8400040F40060ABF84000D5
S1130A2C99F8021099F8010099F80320090241EA97
S1130A3C0040811840F2FC40C1F6FE70FFF750FDF7
S1130A4CDCE583F800A03BF8600C019920F0010070
S1130A5C08432BF8600CBBF8000020F0010008439D
S1130A6CABF80000BBF8000020F0080040EAC1001D
S1130A7C81F00101ABF800000191D2E5022818BF06
S1130A8C704740F2A85042F27821C1F6FE70C0F2D1
S1130A9C000100F07DBED4D478B1007940F210018D
S1130AACC1F6FE7108700878032818BF704740F22D
S1130ABC4840C1F6FE70002101707047002808BF41
S1130ACC704740F2A450C1F6FE70002101707047CB
S1130ADC80B56F46FFF728FD002080BDF0B503AF4D
S1130AEC2DE9000F86B041600246886947F2000385
S1130AFC5062C869C4F20403D06200209062087882
S1130B0C4FF0B00E03EB002000F52C3090608E7A81
S1130B1CCC7A086A4D7A4B7B46EA44060478002D5D
S1130B2C08BF4FF0B80E002C46EA033402D04EF046
S1130B3C010E06E00978012903D8002D08BF44F002
S1130B4C8004817890F803B0037A049124F0700146
S1130B5C467890F804C041EA0B1190F8059084791A
S1130B6C03F0030341EA8301059435B10023039197
S1130B7C00210293CDE9003309E041F46041039173
S1130B8C417A0291817A0191C17A009110214FF03E
S1130B9C010AEFF310858AF31088536847F20008B2
S1130BAC1B78C4F20408C3F11303D8F800400AFA02
S1130BBC03F324EA0303C8F80030D8F8003085F3B3
S1130BCC108893687500DC780024DC702EEAC61358
S1130BDC45EA4616956833432B70B9F1010F4FF073
S1130BEC010308BF0323B9F1000F18BF1943049E76
S1130BFC936806FA0BF65E702023BCF1020F08BF53
S1130C0C30239668BCF1000F08BF6346B370C079FB
S1130C1C936846F2003598729068029B4FF6806E8A
S1130C2C03739068019B4FF6005C43739068009BC0
S1130C3CC4F2000583739068CFF6FF7EC17390688D
S1130C4C0399CFF6FF7C01829068059980F82010F7
S1130C5C54684EF2004094F9023040F25861CEF2DE
S1130C6C0000002BC1F6FE711DD4A479DBB2240163
S1130C7CC45441F8232055F82340012624F480342D
S1130C8C45F8234055F8234003F01F04C3F34213E3
S1130C9C06FA04F400EB8303BFF35F8F43F80E40B2
S1130CAC43F80C40546894F90130002B1DD464793A
S1130CBCDBB22401C45441F8232055F82340012607
S1130CCC24F4803445F8234055F8234003F01F04E2
S1130CDCC3F3421306FA04F400EB8303BFF35F8FF0
S1130CEC43F80E4043F80C405468237A94F90440BA
S1130CFC1B01035541F8242055F8243023F4803388
S1130D0C45F8243055F8243004F01F0301256409F8
S1130D1C05FA03F300EB8404BFF35F8F44F80E3041
S1130D2C44F80C305368DE7993F903303601C65419
S1130D3C41F8232045F24901C5F2532100201160EA
S1130D4C06B0BDE8000FF0BDD0B502AFD0F808C0B6
S1130D5C9CF800E05FEA4E6E44BF0820D0BD4FF013
S1130D6C000EC0E9031EC0E905EEC26180F8203014
S1130D7C9CF80B20BCF810E0102B03D302F09F025C
S1130D8C203205E0072B8CBF02F09F0242F0400298
S1130D9C591CFB240F2B88BF04EB91038CF80B20FC
S1130DAC2EF47061826841EA032111828068017813
S1130DBC41F0600101700020D0BDD4D4D0B502AF95
S1130DCCD0F808C09CF800E05FEA4E6E44BF0820DF
S1130DDCD0BDD7F808E0002400F10C0616C6C0E913
S1130DEC064380F820E09CF80B20BCF81010BEF1F0
S1130DFC100F03D302F09F02203206E0BEF1070F5E
S1130E0C8CBF02F09F0242F040020EF10103FB245E
S1130E1CBEF10F0F88BF04EB930E8CF80B2021F45A
S1130E2C7061826841EA0E2111828068017841F078
S1130E3C600101700020D0BD00214268016092F96C
S1130E4C02304EF2801C002BCEF2000C0DD4DAB220
S1130E5C02F01F0301219940C2F342124CF82210F4
S1130E6CBFF34F8FBFF36F8F426892F90130002BA1
S1130E7C0ED4D9B201F01F02012303FA02F2C1F31A
S1130E8C42114CF82120BFF34F8FBFF36F8F426890
S1130E9C92F90310012301F01F0203FA02F249092B
S1130EAC4CF82120BFF34F8FBFF36F8F416891F93A
S1130EBC041001F01F0203FA02F249094CF8212034
S1130ECCBFF34F8FBFF36F8F81680A7802F0BF02B4
S1130EDC0A7081680022C8780020CA707047D4D484
S1130EECEFF303804FF0704101EB006046F20031E8
S1130EFC8015C4F20001425822F480324250415809
S1130F0C40F25861C1F6FE710858D0E906129142BC
S1130F1C1FD0026942B190F82030102B07D383689C
S1130F2C5B6842F821300EE0826852680BE0D0F81E
S1130F3C08C0072B03D89CF80430535403E0BCF8C6
S1130F4C043022F81130C26901319142816118BF19
S1130F5C70474068012290F9030000F01F0102FA67
S1130F6C01F14EF200124009CEF2000242F82010B8
S1130F7C7047D4D4EFF303804FF0704246F2003143
S1130F8C02EB0060C4F200018015425822F4803256
S1130F9C4250425840F25862C1F6FE7210584268F0
S1130FAC136AABB35B78012B32D1C369D0F814C08C
S1130FBC013B9C451CD192F903204EF2001C51F8C4
S1130FCC2230CEF2000C23F4803341F8223051F855
S1130FDC221002F01F010123520903FA01F10CEB58
S1130FEC8203BFF35F8FC3F880114CF822100FE01B
S1130FFC116969B192F90310012301F01F0203FA7C
S113100C02F24EF200134909CEF2000343F82120F8
S113101C4169C269914208BF7047C26842B190F8F5
S113102C2030102B08D352F8212083685A600FE02B
S113103C8268002353600BE0D0F808C0072B03D858
S113104C525C8CF8042003E032F81120ACF8042034
S113105C013141617047D4D4D0B502AF84B0EFF301
S113106C03814FF0704246F2003002EB0161C4F28E
S113107C00008A15135823F480331350135840F28C
S113108C5863C1F6FE739C58A268D278920703D5B4
S113109C6268527A012A5BD10B164EF2801C03F063
S11310AC1F010122CEF2000C02FA01F15B094CF88B
S11310BC2310BFF34F8FBFF36F8F616891F9023028
S11310CC002B0BD4D9B201F01F039A40C1F3421187
S11310DC4CF82120BFF34F8FBFF36F8FA1680A78B0
S11310EC02F0BF020A70616891F90220002A17D439
S11310FCD1B250F8212022F4803240F8212050F84B
S113110C210001F01F000122C1F3421102FA00F088
S113111C0CEB8101BFF35F8FC1F8000141F8800C27
S113112CA06A30B18268D0E900130392CDE90113AF
S113113C00E001A861680978016001210171E16A8C
S113114C8160616A8847A06A10B101AB0ECB0EC0F6
S113115C04B0D0BDF0B503AF4DF8048D84B04FF09E
S113116C7041EFF3038001EB006640F25861B01557
S113117CC1F6FE710C586068817848B200284EF2B2
S113118C0010CEF200000ED401F01F020123C1F3B3
S113119C421103FA02F200EB8101C1F88020BFF383
S11311AC4F8FBFF36F8FA16846F200380A78C4F2F0
S11311BC000802F0BF020A70616891F9021000295C
S11311CC17D4C9B258F82120012322F4803248F8EC
S11311DC212058F8212001F01F02C1F3421103FA17
S11311EC02F200EB8103BFF35F8FC3F8802140F858
S11311FC2120A0680021C578C1702A0717D5A06AE0
S113120C30B18268D0E900130392CDE9011300E0F8
S113121C01A861680978016005210171E16A8160A6
S113122C616A8847A06A10B101AB0ECB0EC0E80707
S113123C17D0A06A30B18268D0E900130392CDE9CB
S113124C011300E001A861680978016004210171AF
S113125CE16A8160616A8847A06A10B101AB0ECB68
S113126C0EC005F0140014284FEA266517D1A06AA5
S113127C30B18268D0E900130392CDE9011300E088
S113128C01A861680978016008210171E16A816033
S113129C616A8847A06A10B101AB0ECB0EC058F836
S11312AC250020F4803048F8250058F8250004B0B7
S11312BC5DF8048BF0BDD4D4F0B503AF2DE9000B6D
S11312CC0246087847F20003C4F2040303EB40100F
S11312DC00F524301061116088684FF0000E5060E6
S11312EC087B4FF0010C1072C8694FF00045506335
S11312FC086AC2F838E0D063EFF310808CF31088DE
S113130C0C781E6825FA04F426EA04041C601B6895
S113131C80F3108810681469436A84F802E0106939
S113132CF024C4729878146900F0030020701069DA
S113133CFA248471587814694EF200196070187884
S113134C2024156944EA8000E87158791469CEF2B6
S113135C00092072D878146940F25868A07418797E
S113136C1369C00001305872106923238372106909
S113137C09F5407580F80DE0487B91F90F400001A8
S113138CC1F6FE7846F20036285548F82420C4F2FB
S113139C000656F8240009F5C07320F4803046F892
S11313AC240056F8240004F01F000CFA00F0640921
S11313BCBFF35F8F43F8240049F82400487B91F96C
S11313CC10100001685448F8212056F8210020F42C
S11313DC803046F8210056F8210001F01F000CFA69
S11313EC00F04909BFF35F8F43F8210049F821004D
S11313FC43F24321C5F24931C2E906EEC2E908EED3
S113140C82F82DE082F82EE082F82FE082F830E0AA
S113141C0020D160BDE8000BF0BDD4D480F82E3090
S113142C037AC0E90612012B0AD10379002180F852
S113143C29105900013180F82810012180F82A1054
S113144C012180F82D100023C0E9082390F82A20EC
S113145C80F82C3080F82B2080F82F3080F8313035
S113146C80F8333090F82D20002A18BF80F8311002
S113147C0169B4228A7090F83010B9B1002180F857
S113148C301090F82A102922012908BF2822815CE7
S113149C0269D17090F82B1090F82C20013980F847
S11314AC2B10511C80F82C1000207047006951211E
S11314BCC17200207047D4D480F82E30037AC0E96E
S11314CC0612012B09D10379002180F82910590047
S11314DC80F82810012180F82A10002180F82D10A2
S11314ECC0E9082190F82A2080F82C1080F82B20D1
S11314FC80F82F1080F8311080F8331090F82D10EC
S113150CB42200291CBF012180F8311001698A70B2
S113151C90F83010B9B1002180F8301090F82A10EE
S113152C2922012908BF2822815C0269D17090F814
S113153C2B1090F82C20013980F82B10511C80F8BA
S113154C2C100020704700695121C1720020704793
S113155CEFF303804FF0704101EB006046F2003270
S113156C8015C4F20002835823F4803383508058CE
S113157CEFF3038001EB006040F258618015C1F673
S113158CFE71085801690A7BD2071AD190F82A30E7
S113159C90F82C20934222D1026A002A41D080B5C3
S11315AC6F4690F82D30002B45D090F83130002B3D
S11315BC4ED00023012A80F8313056D08B72026A47
S11315CC50E090F82D2012B190F83120F2B10022A5
S11315DC0262012280F82F205420C872704790F8C0
S11315EC2D30022A04D1002B1EBF5220C872704722
S11315FC90F82820CA7090F82B1090F82C20013900
S113160C80F82B10511C80F82C1070474979826992
S113161C436AD154D0E908230169013A0133C0E982
S113162C082390F82E20002AD6D05222CA72012107
S113163C80F8301070478369D0F824C0A2F1010EF1
S113164C13F80C300CF10102C0E908E2CB7080BD38
S113165C49798269436AD154D0E908134A1E591C4A
S113166CC0E908210169012A02D120228A72016988
S113167CFF23CB7080BDD4D4D0B502AF82B0EFF3CE
S113168C03804FF0704101EB006040F2586180150B
S113169CC1F6FE710C582069C17A01F0F701C172D0
S11316AC94F82F00C0B12069F021C172A06B0028FE
S11316BC1ABFD0E90012CDE900126846E16B016053
S11316CC01210171616B8847A06B00281CBFDDE907
S11316DC0012C0E9001236E094F82A1094F82C0099
S11316EC81420ED1206A70BB94F82D00022100288F
S11316FC08BF032194F830202069B2B30022C272CF
S113170C3AE060B194F82D1002284FF000000BD190
S113171C00291CBF94F8290040F0010004E02920A2
S113172C012908BF2820205C21690022CA72216982
S113173CC87094F82B0094F82C10013884F82B0002
S113174C481C84F82C00EFF303804FF0704101EB3C
S113175C006046F200318015C4F20001425822F4B4
S113176C80324250405802B0D0BDF022C27220697F
S113177C827802F0CF028270A06B00281ABFD0E9E5
S113178C0023CDE900236846E26B026099E7D4D4C8
S113179C80B56F4645F25422C5F24F0202600846EA
S11317AC00F002F8002080BDF0B503AF4DF804BD85
S11317BC044600F05FF840F2546CEFF31080012102
S11317CC81F31088C1F6FE7CDCF8001039B940F6C0
S11317DC0351C4F2040100220A7040220A70DCF89E
S11317EC00100131CCF8001080F31088208820B34D
S11317FC40F6000E0021C4F2040E07E00EEB80103C
S113180C40F8223020880131814216D2606800EB06
S113181CC102928850F83130100ADD03D2B2EDD5F2
S113182C0EEB801555F8226026F4803645F82260BC
S113183C23F4803645F82260E0E7EFF310810120B1
S113184C80F31088DCF8000020B1DCF800000138CB
S113185CCCF80000DCF8000038B940F60350C4F2B0
S113186C0400002202708022027081F310885DF85B
S113187C04BBF0BDF0B503AF2DE9000F81B00446F5
S113188C0088002861D044F240084EF2BB4942F271
S113189C902BC4F204080026C4F20109C0F2000B18
S11318AC04E000BF2088013686424ED2002508E0B1
S11318BC08F81500C820012100F04AF90135032D60
S11318CCF0D060683BF8152000EBC6018988914282
S11318DCF4D150F8360099F80010012200F0B850F9
S11318EC02FA05FAB0F1807F0AEA010016D158B960
S11318FC012000F0DFF999F8000040EA0A0089F8A9
S113190C0000012000F0AAF918F915000028D5D41C
S113191C18F8150040F08000CAE700BF58B1012048
S113192C00F0C8F999F8000020EA0A0089F80000D0
S113193C012000F093F918F91500B0F1FF3FBDDC5C
S113194C18F8150000F07F00B2E701B0BDE8000FF5
S113195CF0BDD4D44EF22000C4F20100817940F2DF
S113196C20420068C1F6FE7252F82110C0F30260E6
S113197C21FA00F040F27861C1F6FE7108607047FC
S113198CF0B503AF2DE9000B4EF28045C4F201050E
S113199C4CF200144AF2035040F2204842F6005133
S11319ACC4F2010425F8820C4FF0000CC1F6FE7849
S11319BCC0F2311141F2002243F200604EF22006D3
S11319CCA4F800C0C0F27A024FF40043C0F26E10C7
S11319DC41F6004E88E80E0008F10C01C4F2010631
S11319ECC0F64E6E81E80940B079316858F8200091
S11319FCC1F3026140F27869C840C1F6FE79C9F8B6
S1131A0C0000092005F86DCC86F88200287810B9FE
S1131A1C6878800754D0287848B901202870C820E9
S1131A2C012100F095F800BF28780128FCD1002092
S1131A3C68702870062086F885000020B07400BFFA
S1131A4C307F0007FCD542F2017030810020B07267
S1131A5C307F8006FCD50220207741F22120C2F28F
S1131A6C011030600520B071B079316858F820004D
S1131A7CC1F30261C840C9F8000042F20400C4F288
S1131A8C0000F12101700E21BFF35F8F0171F02171
S1131A9CBFF35F8F017001204021307486F832004F
S1131AAC86F8330031714FF4254125F8821CA0804F
S1131ABCA0880028FCD101202080BDE8000BF0BDDB
S1131ACC4FF47A7000F002F8B4E7D4D47047D4D44D
S1131ADCB0B502AF44F22404C4F204040025C820B7
S1131AEC0121257100F034F8257000BF20780028FE
S1131AFCFCD1207840F00200207000BF20788007D1
S1131B0CFCD4002004F8020C14F8020C0028FBD1BD
S1131B1C002004F11C0100BF11F8102002F07F0218
S1131B2C01F8102011F91020002AFBD401300328ED
S1131B3CF2D1012000F0BEF84EF2BB41C4F2010117
S1131B4C002201200A70BDE8B04000F087B8D4D45C
S1131B5C40F27862C1F6FE72126841F20023C0F2C0
S1131B6C7A039A4201FB00F00FD340F6FF01C0F256
S1131B7C3D0111444DF68362C4F21B32A1FB0212E7
S1131B8C110DA0FB0101D9B11FE04CF6002348F65E
S1131B9C3811C3F69A33C0F24101B3FBF2F2884216
S1131BAC06D24FF47A714843B0FBF2F0800807E098
S1131BBC9200B0FBF2F0884207D24FF47A7148439A
S1131BCC002808BF704700F005B84FF0FF3000F054
S1131BDC01B8D4D401380028FCD17047F0B503AF58
S1131BEC2DE9000B46F22018C4F20008B8F80000E6
S1131BFCB8F8201040F2206501EA00091FFA89F6B2
S1131C0C0024C1F6FE7502E001340D2C0AD026FA2C
S1131C1C04F0C007F8D055F824100029F4D0E0B231
S1131C2C8847F1E7A8F81090BDE8000BF0BDD4D4B8
S1131C3C42F2842146F200320020C0F20001C4F2C8
S1131C4C000200BF31F81030002B18BF42F82030CE
S1131C5C0130062808BF7047F4E7D4D40122EFF30F
S1131C6C108182F3108840F27062C1F6FE7232F871
S1131C7C103023B132F81030013B22F8103032F816
S1131C8C102012B181F3108870474EF2FE3CC4F25E
S1131C9C010C42F29622BCF80030C0F2000232F879
S1131CAC100043F4254222EA0000ACF8000081F352
S1131CBC1088704780B56F460122EFF3108182F3D0
S1131CCC108840F27062C1F6FE7232F810308BB993
S1131CDC4EF2FE3C42F29623C4F2010CC0F2000315
S1131CECBCF800E033F8103043EA0E0343F4254308
S1131CFCACF8003032F81030013322F8103081F394
S1131D0C108880BD80B56F4600F006F8FEF7E0FE43
S1131D1CFEE7D4D400BE7047F0B503AF2DE9000B39
S1131D2C4EF60850CEF200004FF47001C0F880104B
S1131D3C40F20001C0F20001016000200024FEF713
S1131D4C9DFEFFF71DFE01200125FEF797FE40F6D0
S1131D5C0450C4F200004FF42541048020F8041C04
S1131D6C40F2200140F25808C1F6FE71C0F200089E
S1131D7C416001F58061D8F80060816046F2201161
S1131D8CC4F200014FF480520A8005808EB1D8F859
S1131D9C04003546041D03E0013D04F10C0408D095
S1131DAC60790028F8D154E90101091A00F0F0F81F
S1131DBCF2E7D8F80890B9F1000F13D0D8F80C005A
S1131DCC4D4600F1080403E0013D04F1100409D070
S1131DDC60790028F8D154E902022168121A00F043
S1131DECDBF8F1E7FFF7B6FDFFF772FE0220FEF712
S1131DFC45FE9EB1D8F804004FF48075041D03E031
S1131E0C013E04F10C0409D06079B5EB002FF7D135
S1131E1C54E90101091A00F0BBF8F1E7B9F1000F1C
S1131E2C16D0D8F80C004FF4807600F1080404E0C6
S1131E3CB9F1010904F110040AD06079B6EB002F52
S1131E4CF6D154E902022168121A00F0A5F8EFE762
S1131E5C40F29464C1F6FE74204600F079F82046F2
S1131E6C00F08CF842F2EE2042F2EE21C0F20000B7
S1131E7CC0F20001091A8C10012C06DB051F00BFEF
S1131E8C55F8040F8047013CFAD1FFF7D1FE00202E
S1131E9CBDE8000BBDE8F04000F000B87047D4D4A6
S1131EAC40F21200C1F6FE70018801390A04018067
S1131EBC07D140F27C61C1F6FE7101220A700A213D
S1131ECC018040F21400C1F6FE70018801390A0445
S1131EDC018007D140F27D61C1F6FE7101220A70C6
S1131EEC1921018040F21600C1F6FE7001880139F7
S1131EFC0A04018007D140F27E61C1F6FE71012211
S1131F0C0A706421018040F21800C1F6FE70018849
S1131F1C01390A04018008D140F27F61C1F6FE71D7
S1131F2C01220A704FF47A71018040F28060C1F68C
S1131F3CFE70018851B101390A04018018BF704741
S1131F4C40F28260C1F6FE70012101707047D4D456
S1131F5CD0B502AF0549064A044600F01DF8054801
S1131F6C0549204400F014F8D0BD00BF5A04000009
S1131F7C0000000000000000000000000249401AAC
S1131F8C02490860704700BF080000009006FE1F5D
S1131F9C0A46002100F00AB8D0B502AF00239A42D9
S1131FAC08BFD0BDCC5CC4540133F8E700239A427B
S1131FBC08BF7047C1540133F9E72416010000002F
S1131FCC0000001D00000000000203040504050CC1
S1131FDC0C000000010000000000000000000000E4
S1131FECC90A000000000000C81F00000116009D73
S1131FFC1F01D4D409000000A08601004400000095
S113200C010CDF00010000000000000000000000D3
S113201CA50A000000000000F81F000000400000AA
S113202C0400000000400000080000000040000014
S113203C09000000050000000E0000000400000070
S113204C0001000000000100080100000000010074
S113205C09010000000001000A0100004000010514
S113206C02020000400001050302000010400000C1
S113207C06020000000C011A08020000000C011AF0
S113208C09020000000C011A0A020000000C011ADB
S113209C0B020000000001090C0200000000010901
S11320AC0D020000000C011A0E02000000000100D9
S11320BC000300000500000004030000000C0111E3
S11320CC05030000000C011106030000000C0111B3
S11320DC07030000000C011108030000000C01119F
S11320EC09030000000C01110A03000004000000A5
S11320FC00040000000C011701040000000C01177F
S113210C02040000040000000304000005000000A9
S113211C04040000000C011705040000000C011756
S113212C0604000000000113070400004000010530
S113213C0804000040000105090400000000010629
S113214C0A040000000001060B0400000000010654
S113215C0C040000040000000D0400000500000045
S113216C0E040000050000000F0400000000011321
S113217C000500000000011301050000040000002C
S113218C0305000004000000040500000500000025
S113219C0505000000800000070500000500000094
S11321AC08050000000401070B05000000040107EA
S11321BC0C050000040000000306000004000000ED
S11321CC0B060000000001050D06000000000105CF
S11321DC0E060000000C011700070000000C01178C
S11321EC01070000000C011702070000000C011786
S11321FC03070000000C011704070000000C011772
S113220C0507000000400000060700000000011450
S113221C070700000040000008070000040000004D
S113222C0008000004000000010800000400000085
S113223C0208000004000000030800000400000071
S113224C040800000400000005080000040000005D
S113225C0709000000000000080900000000011438
S113226C000B000000000114010B00004A000000E8
S113227C2820000000000000AB01AC01BC01BD0132
S113228CC001BF010204030404040100020008009D
S113229C1000D4D400000006362E302E30004275C7
S11322AC696C7420776974682052656E6573617308
S11322BC20416476616E63656420466C657869625E
S11322CC6C6520536F667477617265205061636B23
S11322DC6167652076657273696F6E20362E302EB9
S10522EC3000BC
S9031D11CE
